:020000040000FA
:10C00000F8FF051001C100001FC1000075C300004A
:10C0100079C300007DC3000081C3000027C1000078
:10C02000000000000000000000000000B1C200009D
:10C030002BC100000000000049C3000059C30000EC
:10C0400031C1000031C1000031C1000031C1000028
:10C0500031C1000031C1000031C1000031C1000018
:10C0600031C1000031C1000031C1000031C1000008
:10C07000850201001DCA010005CA010001FA010084
:10C08000F5F9010031C1000031C1000031C10000EB
:10C0900031C1000031C1000031C1000031C10000D8
:10C0A00031C1000031C1000031C1000031C10000C8
:10C0B00031C1000031C1000031C1000031C10000B8
:10C0C0000000000000000000000000000000000070
:10C0D0000000000000000000000000000000000060
:10C0E0000000000000000000000000000000000050
:10C0F0000000000000000000000000000000000040
:10C100004EF68850CEF20000016841F470010160E3
:10C11000BFF34F8FBFF36F8F06480047FEE7FEE780
:10C12000FEE7FEE7FEE7FEE7FEE7FEE7FEE7FEE7E7
:10C13000FEE7000039C1000000F002F810F0C6F977
:10C140000AA090E8000C82448344AAF10107DA4572
:10C1500001D110F0BBF9AFF2090EBAE80F0013F0ED
:10C16000010F18BFFB1A43F001031847C074020007
:10C17000E07402000A444FF0000C10F8013B13F089
:10C18000070408BF10F8014B1D1108BF10F8015B30
:10C19000641E05D010F8016B641E01F8016BF9D123
:10C1A00013F0080F1EBF10F8014BAD1C0C1B09D17A
:10C1B0006D1E58BF01F801CBFAD505E014F8016BEC
:10C1C00001F8016B6D1EF9D59142D6D3704700007E
:10C1D0000023002400250026103A28BF78C1FBD890
:10C1E000520728BF30C148BF0B6070476E2900F06E
:10C1F000C582702900F0AB83662922F0EE846529A0
:10C2000022F0EB84672922F0E884612922F0E78498
:10C2100003681B0A28BF41F08001692900F072827F
:10C22000642900F06F82752900F06C826F2900F09C
:10C230003983782900F07783E92901F09982E4298C
:10C2400001F09682F52901F09382EF2900F0368300
:10C25000F82900F076830368DB0928BF41F08001EC
:10C26000632901F06282732901F06782E32901F0FA
:10C270007282F32901F07782002070471FB522F007
:10C280009FFC9DE8030000F082FF00F063FF0400C4
:10C290000020002122F068FC401C6060002000218A
:10C2A00022F078FCE06001F039FC00F037FF1FBDA0
:10C2B0001EF0040F0CBFEFF30880EFF309808169D3
:10C2C00011F8021C91BB01B590E80F10E047BDE8E2
:10C2D00000508CE80300244B93E80600914208BF0D
:10C2E000704741B91EF0100F10D12049086820F0A6
:10C2F000010008600AE02CE9F00F1EF0100F08BFE3
:10C300002CED108AC1F838C081F822E01A6092F84A
:10C310002210906B61F0FF0E1EF0100F08BFB0EC02
:10C32000108AB0E8F00F80F309887047104A13684C
:10C330009942FAD801B552F821C00FC8E047BDE8CC
:10C340000050CCF80000704701B51DF005FABDE8BB
:10C350000140EFF3098CBEE701B51DF085FCBDE897
:10C360000140EFF3098CB6E7D40B001034EF00E086
:10C37000701F0300102304E0202302E0302300E0BC
:10C3800040239C46F0B404AE7546E80801D3EFF3B1
:10C3900009860E4F0FCE0FC70FBC0FC74046494648
:10C3A00052465B460FC71DCE3100A60A00D30431AA
:10C3B0006E0900D248311FC7EFF309806946EFF3D9
:10C3C000148663C7604601491CF0A0FBD896001094
:10C3D0007047000010B500F0BDFE001D10BD00BF8D
:10C3E0008927020010F09AB80844401E491E88436D
:10C3F00070470821001DF7E72DE9F04117460E466A
:10C400000446FFF7F6FFA042054633D9002F1CBFB4
:10C4100006F10C0010F0F6F830467468F4B12168AB
:10C42000A94217D305F1080291423CBF61684160FF
:10C4300007D3626861194A602268521B0A60416032
:10C440002560002F1CBF06F10C0010F05BF9201DC9
:10C45000BDE8F08120466468002CE0D129463046D2
:10C4600000F081FE0028D7D1002F1CBF06F10C0080
:10C4700010F048F90020BDE8F08110B5044600F046
:10C4800064FE01682046BDE810400122B4E770B5A3
:10C4900016460D46041F002808BF70BD002E1CBFA5
:10C4A00005F10C0010F0AEF82B465868002818BFB4
:10C4B000A04238BF0346F8D31968CA18A24218BF71
:10C4C0005C6003D122681C461144196021680A1976
:10C4D000824218BF606004D142686260006808440C
:10C4E0002060002E1CBF05F10C0010F00BF970BD90
:10C4F00010B5044600F029FE01682046BDE8104052
:10C500000122C4E753EA020C00F069802DE9F04BE8
:10C510004FF00006002B1FBFB3FA83F503FA05F4B2
:10C5200024FA05F65E4012BF1643B2FA82F502FA0B
:10C5300005F4C5F120051EBF22FA05FC44EA0C04EF
:10C54000203556EA044C4FEA144418BF641C4FF0DF
:10C5500000084FF00009904271EB030C39D3002919
:10C5600019BFB1FA81F701FA07F6B0FA80F700FABD
:10C5700007F6C7F120071EBF20FA07FC46EA0C06A3
:10C580002037B6FBF4FCA7EB0507103F07F01F0BA5
:10C59000CBF120062CFA06F60CFA0BFB44BFB3468F
:10C5A0000026202FA4BF5E464FF0000B5BEA060C6E
:10C5B00008BF4FF0010B19EB0B0948EB0608ABFB6A
:10C5C000027C06FB02CC0BFB03CCC01B71EB0C0105
:10C5D000C1E70B46024641464846BDE8F08B13B51D
:10C5E000084318BF4FF0FF300146AFF30080BDE8AD
:10C5F0001C4070477CB51D4616460C00009001D0CB
:10C600002044401E074B7B442A4669460190304631
:10C6100001F061F805461CB10020694601F06EF892
:10C6200028467CBDFD1000000FB4044910B503AAD4
:10C63000029801F0B3FD10BC5DF814FBD80C00109B
:10C6400070B5044685690068C10601D5302600E052
:10C650002026C00707D070BDD4E90121304690479D
:10C66000206A401C20626D1EF6D570BD70B5044670
:10C6700085690078C00707D170BDD4E90121202069
:10C680009047206A401C20626D1EF6D570BD096877
:10C690004A0501D540B27047C905FCD500B27047C4
:10C6A00009684A0501D5C0B27047C905FCD580B2FA
:10C6B000704770B50C460546012A05D028788006DB
:10C6C00000D5EA69002302E0012305E05B1C9342E8
:10C6D00002D2E05C0028F9D1A869E618C01AA86166
:10C6E000286A184428622846FFF7AAFF04E0D5E923
:10C6F000012114F8010B9047B442F8D32846FFF704
:10C70000B5FF70BD2DE9F04106460024106875297B
:10C71000314616A510D0FFF7BAFF002802DA4042D2
:10C7200013A507E031688A0701D512A502E0490781
:10C7300004D511A5012401E0FFF7B2FF00210A2270
:10C7400006F1240709E0B0FBF2FCB0FBF2F302FBB8
:10C750001C00303078541846491C0028F3D1234679
:10C760002A463046BDE8F04100F049BD0000000017
:10C770002D0000002B00000020000000116802685E
:10C78000006A530501D508700AE0D30501D5088079
:10C7900006E0130603D5C217C1E9000200E00860F5
:10C7A000012070472DE9FF5F15468A460446DFF8F1
:10C7B000AC80F8440027D8E900103E46CDE90010CF
:10C7C00010E03AF816106A4602A801F08BFA411CF4
:10C7D00007D02178890603D5E269391891420DD82E
:10C7E0000744761C2078800602D5E069B84205DD52
:10C7F000AE42E6DB3AF816000028E2D1A069C01B81
:10C80000A0612046FFF71CFFD8E90010CDE9001019
:10C81000002017E03AF818106A4602A801F062FA00
:10C82000B0F1FF3F81460BD000250DF1080B05E06C
:10C83000D4E901211BF8050090476D1C4D45F7D345
:10C8400008F10100B0428046E4DB206A38442062EF
:10C850002046FFF70BFFBDE8FF9F00002E240200DB
:10C8600030B4002100F1240408E002F00705D208EA
:10C87000303542EA4372DB086554491C52EA03052D
:10C88000F3D10468002310A2250708D504F0200482
:10C890000C4304D0C46901230CA2641EC46130BCE3
:10C8A00000F0ADBC10B5044621461068FFF7F8FE55
:10C8B00002462046BDE810400023D1E7D21D22F0F9
:10C8C0000701D1E90023CBE70000000030000000A1
:10C8D000F0B40D460188090502D5214C7C4402E0E4
:10C8E0001F4C7C440E34002100F1240608E002F0C5
:10C8F0000F071209E75D42EA03721B097754491CCE
:10C9000052EA0307F3D102780023120704D5702DF1
:10C9100006D009B1022311342246F0BC00F06FBCEE
:10C9200001231034F8E770B504460D46214610681F
:10C93000FFF7B6FE024629462046BDE870400023B8
:10C94000C6E7D21D22F00703D3E90023C0E703683E
:10C95000126843F0200303600823C3610023B7E794
:10C960000C2302002DE9F05F894604464FF0000ACF
:10C97000DFF874B1FB44C0F820A02046E168884786
:10C98000002874D0252806D0D4E901219047206AD8
:10C99000401C2062F1E700265F462046E168884798
:10C9A0002028054607DB312D05D2781910F8200C18
:10C9B00008B10643F1E7B00701D526F00406C4F834
:10C9C0001CA00027C4F818A02A2D09D0284622F060
:10C9D000B7F838B304EB8708303DC8F8185019E0B1
:10C9E00059F8041B204604EB87029161E1688847EF
:10C9F000012F054618D1E069002820DA26F020062C
:10CA00001DE0D8F8180000EB800005EB400030383E
:10CA1000C8F818002046E1688847054622F090F8DB
:10CA20000028EED1012F0AD02E2D08D12046E16832
:10CA300088477F1C0546022F46F02006C4DBA0690C
:10CA4000002803DA404246F00106A061F00701D059
:10CA500026F010066C2D0BD0682D09D04C2D39D046
:10CA60006A2D35D0742D35D07A2D33D016E038E0CC
:10CA7000E1682F4620468847B842054609D16C2F09
:10CA800026D04FF48060E16806432046884705467B
:10CA900004E06C2F1AD04FF4807006430DB3A5F15B
:10CAA0004100192802D8203546F400664A46294636
:10CAB000204626604E46FFF799FB80B101280BD037
:10CAC000F61D26F0070000F1080956E74020E4E7CC
:10CAD0008020D8E70020D6E706F104094DE7284674
:10CAE00052E7206ABDE8F09F9C2202002DE9F04148
:10CAF000044616460D464769007B80072ED038460F
:10CB00000FF02AFE50BB3EB3012E02D0022E25D1DB
:10CB100004E0204600F066F805441DE038460FF0BA
:10CB200007FEE168002841F01001E16005DA2046C7
:10CB300000F048FF0120BDE8F081C9030BD5626811
:10CB4000E16A914200D81146A26911442269891A0A
:10CB5000814200DD08460544002D01DA0220EAE7A3
:10CB6000E16A6068E268814206D29103E06203D51F
:10CB700022F4003141F01002A6690027AE4213DC16
:10CB8000E16A814201D90B4600E0034603EB060C43
:10CB90002369ACEB030CAC4506DD814201D98C4620
:10CBA00000E084469C4505D1A760276042F0200044
:10CBB000A5620DE0AD1BE669AE1B8142A66000D9FF
:10CBC0000846C01A281A20605819606022F0200018
:10CBD00003490840E060002084F84870ABE700009B
:10CBE000BFCFD7FF10B50146C268900703D09006AB
:10CBF00007D5886A0AE0FFF7F5FB01210160881E6E
:10CC000010BD8B69486818440B69C01A91F8483008
:10CC10001BB191F84910401A10BD1103FCD5002832
:10CC2000FADD401E10BD2DE9F04704464FF0000923
:10CC30004FF0FF37C568D4E90486A80707D020461F
:10CC400000F0F4FE30460FF06DFD002802DA3846A1
:10CC5000BDE8F087280502D54046FFF749FC4C2186
:10CC6000204600F0EFF9206D20F0010020654846D5
:10CC7000EEE700002DE9F041044600F14C0738468C
:10CC80000FF0C0FCE068810712D0800601D5A66ACB
:10CC900004E0A169606808442169461A204600F052
:10CCA000C5FE0022054631462046FFF71FFF00E083
:10CCB000002538460FF026FD2846BDE8F0812DE915
:10CCC000F04118B1BDE8F041FFF7D4BF0B4E00258D
:10CCD00030460FF097FC0A4C6F1E07E02046FFF726
:10CCE000C9FF00B13D46206D20F00104002CF5D1B4
:10CCF00030460FF007FD2846DFE700000C0100106A
:10CD0000840C00102DE9F04716468846070010D025
:10CD100006F14C0081460FF075FC3046FFF783FFAB
:10CD200018F8010B61280DD0722805D0772841D161
:10CD300005E00020BDE8F0870125002405E002257C
:10CD4000042402E0082448F2020518F8010B2B28FD
:10CD500006D0622809D018F8010C74280AD00BE01C
:10CD600045F0030544F00204EFE745F0040544F004
:10CD70000104EAE744F01004384621460FF0F0FCC5
:10CD8000411C17D00021316171604FF40071F560D2
:10CD9000F1617061200704D5304602220021FFF7BF
:10CDA000A5FE306D40F00100306548460FF0AAFC4A
:10CDB0003046BFE70026F8E72DE9F04115460E465C
:10CDC0000746214C20460FF01DFC2A4631463846C6
:10CDD000FFF798FF054620460FF094FC2846BDE873
:10CDE000F0812DE9F0410E468046174D28460FF0A0
:10CDF00009FC164C206DC10704D0410804D020F076
:10CE00000104F7E7224612E05420FFF736FB070043
:10CE100017D0206D47F001010843542120653846A2
:10CE200000F010F907F14C000FF01AFC3A463146B9
:10CE30004046FFF767FF044628460FF063FC204694
:10CE4000CDE70024F8E700000C010010840C00106E
:10CE500030B503461D783DB10A4612F8014B1CB1AE
:10CE6000AC42FAD15B1CF5E7181A30BD40EA010369
:10CE700010B59B070FD1042A0DD310C808C9121F83
:10CE80009C42F8D020BA19BA884201D9012010BDBD
:10CE90004FF0FF3010BD1AB1D30703D0521C07E08A
:10CEA000002010BD10F8013B11F8014B1B1B07D1EE
:10CEB00010F8013B11F8014B1B1B01D1921EF1D15F
:10CEC000184610BD10B5431C02E010F8011B71B1EB
:10CED0008107FAD14FF0013202C88C1A8C4314EA50
:10CEE000C211F9D0C01A0A0603D0C01E10BDC01A64
:10CEF00010BD0A0401D0801E10BD0902FCD0401EE6
:10CF000010BD032A40F2308010F0030C00F01580B1
:10CF100011F8013BBCF1020F624498BF11F801CB3C
:10CF200000F8013B38BF11F8013BA2F1040298BFA1
:10CF300000F801CB38BF00F8013B11F0030300F00B
:10CF40002580083AC0F0088051F8043B083A51F8AF
:10CF500004CBA0E80810F5E7121D5CBF51F8043BB4
:10CF600040F8043BAFF30080D20724BF11F8013B27
:10CF700011F801CB48BF11F8012B24BF00F8013B89
:10CF800000F801CB48BF00F8012B704710B5203ADC
:10CF9000C0F00B80B1E81850A0E81850B1E8185064
:10CFA000A0E81850203ABFF4F5AF5FEA027C24BF36
:10CFB000B1E81850A0E8185044BF18C918C0BDE81F
:10CFC00010405FEA827C24BF51F8043B40F8043BE8
:10CFD00008BF7047D20728BF31F8023B48BF11F89D
:10CFE000012B28BF20F8023B48BF00F8012B7047F7
:10CFF00002F0FF0343EA032242EA024200F024B8AF
:10D000004FF000020429C0F0128010F0030C00F071
:10D010001B80CCF1040CBCF1020F18BF00F8012BEF
:10D02000A8BF20F8022BA1EB0C0100F00DB85FEABD
:10D03000C17C24BF00F8012B00F8012B48BF00F889
:10D04000012B70474FF0000200B5134694469646F8
:10D05000203922BFA0E80C50A0E80C50B1F120010B
:10D06000BFF4F7AF090728BFA0E80C5048BF0CC0B9
:10D070005DF804EB890028BF40F8042B08BF704717
:10D0800048BF20F8022B11F0804F18BF00F8012B89
:10D09000704700000000000030B44FF0013C50F831
:10D0A000042B51F8043BCCFA52F4D51A20D1FCB928
:10D0B00050F8042B51F8043BCCFA52F4D51A17D18E
:10D0C000B4B950F8042B51F8043BCCFA52F4D51AF9
:10D0D0000ED16CB950F8042B51F8043BCCFA52F441
:10D0E000D51A05D1002CDAD030BC4FF000007047C3
:10D0F00029BAB1FA81F111F01801D1F12000844070
:10D10000F2D1CA40CB4012F0FF0213F0FF0330BC53
:10D11000D01A7047704770477047000070B5064CD2
:10D120007C44064D7D4404E0204601680844804765
:10D13000241DAC42F8D170BD546602005466020052
:10D1400000487047800D0010704710B5FFF7F8FFDA
:10D15000083010BD10B5FFF7F3FF203010BD704749
:10D1600070477047704738B504460A460020694644
:10D17000AFF30080002808BF38BD02460099204662
:10D1800000F0E6FD012038BD012001F0C7B8F8B578
:10D19000AFF30080054600200C46102000BF064675
:10D1A000A819A0420DD9324669460020AFF300808D
:10D1B000070008BF01F0B2F80098A04218BF05466A
:10D1C000C419FFF7C2FF05600746F01D20F00700F5
:10D1D0004619284600F00AF8B44208BFF8BDA21B61
:10D1E00031463868BDE8F84000F0B2BD002101606A
:10D1F000C0E901100C300FF033BA102070472DE950
:10D20000F0470D4699469246044600F1240801680D
:10D21000880604D5E06921F01001216000E00120BA
:10D22000A84201DD471B00E00027A1697A1902EB43
:10D230000900081AA0612078C00602D42046FFF732
:10D24000FFF9002608E0D4E901211AF8060090470A
:10D25000206A401C761C20624E45F4DB2078C00614
:10D260000AD52046FFF7ECF906E0D4E90121302089
:10D270009047206A401C2062381EA7F10107F4DCA9
:10D2800007E0D4E9012118F805009047206A401C06
:10D290002062281EA5F10105F3DC2046FFF7E6F920
:10D2A0002078000602D50220BDE8F0870120FBE7C8
:10D2B0002DE9FF4F0C461E464FF0FF378BB0D2E9E9
:10D2C0000001DDF860800A908A46C1F30A5505B96D
:10D2D0003D46002108464FF00000BAF1000F00F46F
:10D2E000400005DA00EB80004FF4400101EA5000F5
:10D2F0004FEA9059B9F1010F00DDB9460A9850EA9A
:10D300004A000ED044F61050A5F2FF3545432F14C5
:10D31000B8F1000F1ED07542291E1EDDC9F10002B2
:10D320001CE0B8F1010F4FF0000001D0302103E004
:10D33000F24305E02154401CB042FBDB30460022A2
:10D34000002121540B99C1F80880C1E900200FB0D9
:10D35000BDE8F08FBD1B6D1CDEE74A4600DA69426E
:10D3600006A800F03BFF06AB93E8070003AB83E899
:10D37000070050460A9921F003F88DE80700A0F550
:10D3800000501F3800900398002D0ADD42F21F0163
:10D390004A460844002303A90390684621F06CFA2A
:10D3A00009E0A0F500504A461F38002303A9039066
:10D3B000684621F076FA8DE807000004000C03D0DF
:10D3C0004FF0FF30410800E01046B8F1000F03D0E5
:10D3D0000022009215461EE0751E05D400F0DAFC0E
:10D3E000303262556D1EF9D5B3460122084302D092
:10D3F00000227F1C04E02078302801D100227F1E0B
:10D40000002A099784D01DE0112D07DA00F0C2FC34
:10D41000303262556D1C50EA0102F5D1084302D04A
:10D420000098C8B10EE00021681E05E0235C625C34
:10D4300063542254401E491C8142F7DBAB46A81BB3
:10D44000401E0990002004F80B000B98099AC0F8C0
:10D450000880C0E9002B7AE711264FF0000857E753
:10D460002DE9F04F88460446D21D22F0070191B005
:10D47000D1E90001CDE90A0121F04AFB02460B98EF
:10D48000C00F01D02D2007E02068810701D52B2097
:10D4900002E0202101EAC000032A099001D0072AF6
:10D4A00005DB03464146204600F038FE0BE12078BC
:10D4B000800601D5E06900E00620B8F1650F8146DD
:10D4C00006D0B8F1660F18D0B8F1670F70D131E00F
:10D4D0000020B9F1110F009001DB112301E009F1E7
:10D4E00001030AAA01A90CA8FFF7E2FEDDE90C700E
:10D4F000002609F10105834647E001204B460090D4
:10D500004FF000470AAA01A90CA8FFF7D1FEDDE9F8
:10D510000DB00C995D46002610B909F101000D18F7
:10D52000B9EB050003D4C0F1FF3609F10105A5EB05
:10D5300009002BE0B9F1010F01DA4FF001090020D9
:10D54000B9F1110F0090484601DD112300E00346B8
:10D550000AAA01A90CA8FFF7ABFEDDE90C704D4645
:10D5600000268346207800070AD4AB4500DA5D46E2
:10D5700001A8012D04DD411911F8011C302907D043
:10D580004F4502DA17F1040F04DA012082460FE05A
:10D590006D1EEEE7002F02DCED1B3E4403E0781C1D
:10D5A000A84200DD7D1CB81B00F1010A4FF00047C6
:10D5B0002078000703D4AA4501DB4FF0FF3A002191
:10D5C000B7F1004F0DF143088DF8431024D002202D
:10D5D0002B23002F01DA7F422D230A21021EA0F106
:10D5E000010000DC5FB197FBF1FC97FBF1F201FB5E
:10D5F0001C7C17460CF1300C08F801CDEEE7A8F1C1
:10D60000010003702188090501D5452100E065214D
:10D61000A0F1010800F8011C09980FA9A1EB080767
:10D62000FF1D00B10120411901EBEA70A1693844E6
:10D63000081A401EA0612078C00602D42046FEF7DA
:10D64000FFFF099828B1D4E901219047206A401CC6
:10D6500020622078C00622D52046FEF7F1FF1EE0AA
:10D66000002E04DBB34502DD01A8805D00E0302020
:10D67000D4E901219047206A401C2062761CAAF15F
:10D6800001005FEA000A0AD1FFF764FDC068016883
:10D69000405CD4E901219047206A401C2062281E8A
:10D6A000A5F10105DCDC07E0D4E9012118F8010B44
:10D6B0009047206A401C2062381EA7F10107F3DC66
:10D6C0002046FEF7D3FF032011B041E601694A1C52
:10D6D00002610878704700B58FB0CDE901310021B3
:10D6E000059105497944CDE9031011466846FFF7D5
:10D6F00039F90FB000BD0000E5FFFFFF0A6802F82E
:10D70000010B0A607047D1E900239A4202D2531CF0
:10D710000B601070704710B5436913B1AFF3008010
:10D7200001E0FEF7C6FF012010BD127800F12401D0
:10D730000A7000224A700122EDE711684FF0FF32B3
:10D74000E9E710B5436913B1AFF3008001E0FFF7DB
:10D7500029F8012010BD128800F1240182840022E2
:10D76000C2840122EDE711684FF0FF32E9E70000C3
:10D770002DE9F0418046D21D22F007020025D2E9B2
:10D780000002F52915A614D0011E72F1000106DA77
:10D790000023D0EB030063EB020211A608E0D8F8E7
:10D7A00000108B0701D50FA602E0490701D50EA690
:10D7B00001251146002408F1240704E000F0EAFAEC
:10D7C00030323A55641C50EA0102F7D12B463246FA
:10D7D00021464046BDE8F041FFF711BD00000000C2
:10D7E0002D0000002B000000200000002DE9F04774
:10D7F00005460C46C86820F4201040F48000C8603C
:10D80000800602D5084600F034F9E06841F2820152
:10D810004FF0FF390140022903D0204600F0D2F832
:10D82000B5E000F42041B1F5004F0FD1C00306D59B
:10D830006168E06A884200D80846606006E02069B6
:10D84000E062606060690EF073FFA061A068002272
:10D85000EEB200280DDAE1688B050AD4C043A0605F
:10D8600041F490302260E0606068411C61600670A5
:10D87000A5E0E0689046226040F40050E060206936
:10D8800068BB60690EF068FF012704F12405A0B1B0
:10D89000A08910F4407F08D0E069FEF7EEFD20611A
:10D8A00018B1E06840F4006016E0E7612561E068C7
:10D8B00020F4407040F480600EE0E069FEF7DDFD8A
:10D8C00000282061F1D0E06840F4006010F4407F4F
:10D8D000E06002D140F48070E06020696060E06840
:10D8E00025696FF0010AC1051FD56168E06A8842A9
:10D8F00000D80846411B04D02246284600F06CF8A8
:10D90000F0BBE068010203D5E562C4E9015854E0C8
:10D91000691CE1626160E16940F48030491EC4E93C
:10D92000021030462E70BDE8F087010202D500F4E7
:10D9300080320AE06068411C61600670E0680A2E6F
:10D9400040F48030E06006D00022E16A60688142E5
:10D9500003D90B4602E00122F7E70346A7895B1BC8
:10D960007F0503D4E7699F4200DDE2B1814200D820
:10D970000146E5620F1AC4E90158002B09DD00E0F9
:10D9800005E022461946284600F026F808B1484628
:10D99000C9E747B1A069E5626560C01BA061E068A6
:10D9A00040F01000E060E068000208D56168A069FE
:10D9B000E562491B08446560A0615046B3E7304604
:10D9C000B1E70000C16821F4001141F08001C1609D
:10D9D00000218160016070472DE9F04781461446BF
:10D9E0000E464FF0FF383248D5685769054209D0D6
:10D9F0003846A1690EF0EAFE002811DB2C48C0432E
:10DA00000540E5602B463246494638460EF0E4FEB6
:10DA1000A16920F00042B21A11440028A16103D08C
:10DA20002046FFF7CFFF4046BDE8F08770B50446BB
:10DA30000569C06A6168884200D80846E16821F437
:10DA40002011E160C90312D5A84208D02246411B2B
:10DA50002846FFF7C1FF10B14FF0FF3070BD002026
:10DA6000E562C4E90150E06820F48030E060002005
:10DA700070BD10B50446C06820F02000E060A16AC7
:10DA8000A06988420DD02046FFF7D0FFE06820F45F
:10DA9000405040F01000E060A06AA0612069E062A0
:10DAA000606044F24001E0688843E06010BD00001F
:10DAB000100002002DE9F04704461E4690460D4630
:10DAC000C7684C3081460EF09DFDB80714D078022F
:10DAD00012D44046B8F5807F09D0B0F5007F06D05B
:10DAE000B8F5806F08D1012604F1240506E0701E08
:10DAF0006FF07F41884201D3012409E02561E6618E
:10DB00006560E06820F4706040EA0800E06000248E
:10DB100048460EF0F7FD2046BDE8F08710B5654891
:10DB20005421FFF78FFA64485421FFF78BFA6348BA
:10DB30005421FFF787FA62485E49624A624B0160EE
:10DB40005D4810605D4A1A60431C0B65511C0165FD
:10DB50000120106557484C300EF082FD56484C307D
:10DB60000EF07EFD55484C300EF07AFD57480EF011
:10DB700077FD58484F4A56A17844FFF71DF920B960
:10DB8000544878440A3800F0C2FB54484A4A52A12B
:10DB90007844FFF711F920B9504878440A3800F06A
:10DBA000B6FB4F48454A4CA17844FFF705F920B928
:10DBB0004B4878440A3800F0AAFB40233D48DC007B
:10DBC00000212246FFF776FF20B1424878445438BE
:10DBD00000F09DFB3848224640230021FFF76AFFF2
:10DBE00020B13E487844543800F091FB3348224637
:10DBF00010230021FFF75EFF002806D03848784444
:10DC0000BDE81040563800F082BB10BD2B482DE90E
:10DC1000F041006D2D4E20F0010430460EF0F2FC74
:10DC2000244D4C3528460EF0EDFC2248FEF7FBFF54
:10DC300028460EF067FD28460EF0F2FC1E4D4C35CE
:10DC400028460EF0DFFC1C48FEF7EDFF28460EF0DC
:10DC500059FD28460EF0E4FC184D4C3528460EF0D0
:10DC6000D1FC1648FEF7DFFF28460EF04BFD284694
:10DC70000EF0D6FC14E0206D20F0010504F14C00FC
:10DC800007460EF0BFFC2046FEF7CDFF38460EF0EB
:10DC900039FD38460EF0C4FC2046FEF729FC2C4620
:10DCA000002CE8D130460EF02DFD08480EF0B8FCEF
:10DCB000BDE8F081840C0010D80C00102C0D001071
:10DCC0000001001004010010080100100C010010F8
:10DCD000720000000020020077000000EF1F020029
:10DCE000C81F02002DE9F04116460C460546FEF716
:10DCF00071FB036893F80101012807D0FF2C12D8AB
:10DD0000185D80B101202C70BDE8F081D3F80701C7
:10DD10003246214603F20713C7182846BC46BDE821
:10DD2000F041002360474FF0FF30EDE710B50020D1
:10DD300000F0E6FAAFF30080BDE8104001200EF0DD
:10DD4000F5BC801A0844401E491E884310447047A1
:10DD500070B5144605468C464368002B18BF6345D2
:10DD600038BF1846F8D302681044604508D06646AC
:10DD7000604604220821FFF7E4FF811B8446641AF1
:10DD80002946CCF80040BDE8704000220CF10400A8
:10DD9000FEF77DBB30B5B0F10A0271F100034FEA26
:10DDA000900E4EEA817EB0EB0E0061EB91014FEADE
:10DDB000101E4EEA017E10EB0E0041EB11114FEAEE
:10DDC000102E4EEA016E10EB0E0041EB11214FEACE
:10DDD000104E4EEA014E10EB0E0041EB114140187F
:10DDE00041F100014FEAD00040EA41704FEAD10111
:10DDF0004FEA810444EA907410EB800544EB01047F
:10DE00006D1944EB0404521BA3414FF0000348BFBB
:10DE10000A3200D530BD401C41F1000130BD000088
:10DE20002DE9F04F04460D46D21D22F0070089B0BF
:10DE3000D0E900974846394620F06AFE0246F80FBE
:10DE400001D02D2307E02068810701D52B2302E0B4
:10DE5000202101EAC0038DF820300BB1012000E041
:10DE60000020032A824601D0072A04DB29462046E7
:10DE700000F054F93FE12078800601D40D2500E040
:10DE8000E569C7F30A560D2D49DA00214FEA175B01
:10DE900008464FF00000002F00F4400007DA00EBC6
:10DEA00080004FF4400100EBD07001EA6000811562
:10DEB000012901DD4FF0FF3100224FEA850CBCF152
:10DEC000180F06D31346ACF118004FF08052C24031
:10DED00003E04FF4801323FA0CF30CF10C0CBCF1AB
:10DEE000200F04D3ACF1200C09FA0CF001E007FA82
:10DEF0000CF000294FF0004801DD18B90FE00ED1F9
:10DF000040450CD319EB02095F4121B9404502D1CC
:10DF10009F4329EA0209BBEB175F00D0761C2088DB
:10DF2000000502D57B48784402E07A4878441938E5
:10DF300008AA302302F80A30037C0AF10101002EFE
:10DF40000AF1020A53546A4602DC4FF0300101E044
:10DF50004FF031014FF001088DF8001002D0A6F209
:10DF6000FF3603E059EA470100D06B4E002D02DC7A
:10DF70002178090704D54FF002082E218DF80110F1
:10DF8000C44600210BE0C7F303433F01C35C491CB7
:10DF90006D1E02F80830052908F1010801DA002D8C
:10DFA000F1DC00210CE000EB1973491C1B786D1E9D
:10DFB000082902F808304FEA091908F1010801DAC6
:10DFC000002DF0DC21688B0602D516E0A8F10108CF
:10DFD000E04505DD02EB080313F8013C302BF5D0DA
:10DFE000B8F1000F09DD02EB080313F8013C2E2BFA
:10DFF00003D1090701D4A8F10108002D05DD3E2158
:10E0000002F808106D1E08F10108407C002E02F88D
:10E01000080008F1010804DA2D20764202F8080011
:10E0200002E02B2002F808000A214FF47A708642A1
:10E0300008F101080BDB96FBF0F3303302F80830EF
:10E0400096FBF0F308F1010800FB136601E0642E73
:10E050000CDB642096FBF0F3303302F8083096FBBB
:10E06000F0F308F1010800FB136601E00A2E06DB5D
:10E0700096FBF1F0303002F8080008F1010896FB39
:10E08000F1F001FB1060303002F80800A16908F1DE
:10E09000010808EB050202EB0A00081AA0612078CB
:10E0A000C00602D42046FEF7CBFA216A08AE01EB87
:10E0B0000A00206204E0D4E9012116F8010B904720
:10E0C000BAF1010AF7D22078C00602D52046FEF741
:10E0D000B7FA6E4609E016F8010B3E280FD0D4E9D6
:10E0E00001219047206A401C2062B8F10108F2D259
:10E0F0002046FEF7BBFA09B00320BDE8F08F206A86
:10E100002844206203E0D4E90121302090476D1EAD
:10E11000EBD3F8E70E0D020002FCFFFF2DE9F04102
:10E120001F46044603260168072A01F4006004DB49
:10E1300008B116A505E016A503E008B115A500E095
:10E1400015A521F010002060A069C01EA0610FB1CC
:10E15000401EA0612046FEF773FA4FB1D4E90121B9
:10E1600038469047206A401C2062C01C206206E0AE
:10E17000206AFAE7D4E9012115F8010B9047761ED1
:10E18000F8D22046FEF772FABDE8F0814E414E000B
:10E190006E616E00494E4600696E66002DE9F041E1
:10E1A00014460D46074601F14C0630460EF02AFA99
:10E1B000094B7B44224629463846FFF78CFA044631
:10E1C000287B000601D54FF0FF3430460EF09AFA56
:10E1D0002046BDE8F0810000990902002DE9F047D2
:10E1E000814616468AB0354878440DC88DE80D0042
:10E1F00032487844801C03AC0DC884E80D0041F619
:10E200009B300844372190FBF1F290FBF1F5A5F12A
:10E21000800501FB12041B3C02D56442012000E092
:10E220000020DFF898A080460027FA44AAF1BE0A31
:10E230000EE0E0070AD03246684607EB47010123AB
:10E240000AEB810120F02DFB8DE8070064107F1C94
:10E25000002CEED1194F7F44AE3F19E0E80715D0EE
:10E2600007EB04100DF1180A90E80E008AE80E0082
:10E27000C068F04201D1981908903246012306A9DE
:10E2800003A820F00EFB03AB83E807006D10641CAD
:10E29000002DE3D14FF0010332466946B8F1000F7B
:10E2A00003A802D020F0E8FA01E020F0FAFAC9E968
:10E2B0000001C9F808200AB0BDE8F087DC0A0200B6
:10E2C00070B504460D4D28460EF09CF903E020F091
:10E2D0003EFC401C0ED0094914F8010B4C390028B3
:10E2E000F5D10A2020F033FC044628460EF00AFA45
:10E2F000204670BD4FF0FF34F7E70000240D0010FA
:10E3000010B500F01FF8BDE8104000F016B810B5C9
:10E3100000F030F8BDE8104000F00FB810B500F084
:10E3200043F8BDE8104000F008B810B5FEF70DFF47
:10E330000068BDE8104000F05FB8002801D00EF082
:10E34000F5B9704710B5002102A000F05AF801207D
:10E3500010BD0000534947414252543A2041626E79
:10E360006F726D616C207465726D696E6174696F36
:10E370006E00000010B5014602A000F042F8012036
:10E3800010BD000053494752545245443A2052654B
:10E390006469726563743A2063616E2774206F70DC
:10E3A000656E3A200000000010B5012805D000215C
:10E3B00003A000F026F8012010BD09A1F8E7000035
:10E3C00053494752544D454D3A204F7574206F665E
:10E3D0002068656170206D656D6F727900000000C6
:10E3E0003A2048656170206D656D6F727920636FAA
:10E3F000727275707465640010B50C300EF010F90F
:10E4000010BD70B505460C460A2000E06D1C0EF0EC
:10E41000BBFA35B128780028F8D102E0641C0EF070
:10E42000B3FA14B120780028F8D1BDE870400A2072
:10E430000EF0AABA80B54FF600324AF290214AF2A5
:10E440008820C1F20502C1F20001C1F20000914230
:10E4500018BF08464FF6F831C1F2050118BF114642
:10E46000FDF70CFF80BD00004EF69851CEF2000182
:10E4700008600020886070474EF69C52CEF2000281
:10E48000106051607047000044F63831C1F200015D
:10E490000865704780B511F04BFD008880BD000015
:10E4A00080B589B391F90200B0F1FF3F08DDC0B239
:10E4B00060280ED344F63830C1F20000806B17E0BC
:10E4C00044F63830C1F20000026C002A08BF80BD5B
:10E4D0000FE0402805D344F63830C1F20000C06B8D
:10E4E00006E0202808D344F63830C1F20000406B23
:10E4F00082680846904780BD44F63830C1F200007B
:10E50000006B82680846904780BD000080B544F6E5
:10E510003831C1F2000181F8540041F2CC4041F69B
:10E52000D412C0F20300C0F20302C1E90C00C1E939
:10E530000E2240F2650140F21D02C0F20201C0F25B
:10E540000202042003F0ACF84FF64D71C0F2010155
:10E55000002000F0C3FE80BD1B296FF00A0202D02C
:10E560001D2918BF002280B5104403F09FFF80BD15
:10E5700010B582B040F66441C1F20001096844F66A
:10E580003832C1F200028C88D06402F015F80438E9
:10E59000A04207DA00240020772100220223009401
:10E5A00011F01CFD02B010BDB0B582B004460A20C7
:10E5B0000D4611F07BFD60B1034602201880182043
:10E5C00018725D720025204600210C22009512F081
:10E5D00075F902B0B0BD00002DE9F04782B0DDF85A
:10E5E0002890804609F10F0080B21D4617460C4660
:10E5F00011F05CFDC8B1064609F10700DDE90B1A10
:10E60000308006202A0A307206F10F00B2734A46A3
:10E610007480B7807573FEF774FC40462146032270
:10E620003346CDF800A012F049F902B0BDE8F087FA
:10E63000F0B581B006460D201C4617460D4611F078
:10E6400035FD60B10346052018800420187230465D
:10E65000294602225D809F80009412F02FF901B0BC
:10E66000F0BD000010B5013880B2002111F066FD48
:10E67000D0B104460068807800F01200102813D151
:10E68000092011F013FD002808BF10BD03462068C3
:10E690000122817801F0EF0181701E20187220683C
:10E6A0000189042002F050FF10BD0000B0B544F60F
:10E6B000383CC1F2000C44F690309CF854E0C1F2B2
:10E6C000000000210122C0F82C1180F8302100BF89
:10E6D0000CEB011201310023002400BFC518C25009
:10E6E0002C3385F82840582B04F1010485F824E0E8
:10E6F000A98385F82910F1D1032900F15800E7D149
:10E7000041F2E840C0F20300CCF83000B0BD000098
:10E71000B0B582B004460B200D4611F0C7FC70B1B5
:10E7200003460320188002201872280A5D7298722E
:10E730000025204600210122009512F0BFF802B00A
:10E74000B0BD00002DE9F04782B08046DDE90B093D
:10E750000C46B9FA89F1B0FA80F04909400950EA4B
:10E7600001054FF00D0018BF03F10D0080B21E46E9
:10E77000924611F063FEF8B1074600680A990680D8
:10E780003868A0F802A04FF0160038724FEA142043
:10E790007C72B87235B107F10D0528463246FEF796
:10E7A000B0FB294638680B224160404621463B4673
:10E7B000CDF8009012F082F802B0BDE8F0870000BA
:10E7C0002DE9F04381B0804603F10D001F46154648
:10E7D0000C4611F06BFCA8B10646781DDDE908195E
:10E7E00030801020307206F10D003A467480B580FA
:10E7F000FEF787FB4046214608223346CDF80090BD
:10E8000012F05CF801B0BDE8F08300002DE9F043A0
:10E8100081B0804603F10D001F4615460C4611F0ED
:10E8200045FCA8B10646781DDDE9081930800820AE
:10E83000307206F10D003A467480B580FEF761FB38
:10E840004046214604223346CDF8009012F036F8B7
:10E8500001B0BDE8F0830000F0B581B006460D20A0
:10E860001C4617460D4611F021FC70B103460520E9
:10E8700018800C201872280A987230462946062201
:10E880005F805D72009412F019F801B0F0BD0000D5
:10E89000F0B581B00746092000EB410016460D4651
:10E8A00011F004FCC8B10346680040F00100188074
:10E8B00031880E20187255B1D81DB21E12F8026FA1
:10E8C000013D00F8026F56782C064670F6D10026FE
:10E8D00038460722009611F0F1FF01B0F0BD0000AC
:10E8E000B0B582B005460B200C4611F0DFFB80B1BD
:10E8F0000346032018800A201872200A98724FF0ED
:10E90000000C2846214605225C72CDF800C011F0AB
:10E91000D5FF02B0B0BD000044F6903041F2805106
:10E92000C1F20000C0F20301C0F82C1170470000D2
:10E930002DE9F04782B0DDF828801D4691460C464F
:10E94000064600F0E7FC40B1304621462A464346E1
:10E9500000F026F802B0BDE8F08705F1170080B29C
:10E9600011F0A4FBC8B1074605F10F003880D22092
:10E970003872200A07F10B0AB872504641462A46FF
:10E980007C72FEF7BEFA4AF8059000253046214613
:10E9900011223B46009511F091FF02B0BDE8F087CF
:10E9A0002DE9F04182B0804602F10B0080B21F4693
:10E9B00015460C4611F07AFBA8B10646E81C3080DB
:10E9C0005220210A307206F10B00B17239462A46F4
:10E9D0007472FEF796FA0027404621460A22334613
:10E9E000009711F06BFF02B0BDE8F0812DE9F04116
:10E9F00082B0804602F10B0080B21F4615460C46DD
:10EA000011F054FBA8B10646E81C30801220210A00
:10EA1000307206F10B00B17239462A467472FEF765
:10EA200070FA00274046214609223346009711F02C
:10EA300045FF02B0BDE8F08110B5044603F0FAFDD1
:10EA400044F6C44CC1F2000CDCF8201169B1238AF1
:10EA50000A8A934202D2002208E000BF0A460968EF
:10EA600021B1088A8342F9D200E000220CF59070AF
:10EA7000214603F07DFD012012F052FB03F0F6FD6C
:10EA800010BD000044F6C441C1F20001C1F83001DC
:10EA90007047000080B512F08BF980BD2DE9F04180
:10EAA0000C46064612F056F948B30546F4B144F652
:10EAB000FC58C1F2000898F8140000B300270AE0DF
:10EAC000013798F81410F8B20234884205F10205B3
:10EAD00028BFBDE8F081208828802388002BEFD054
:10EAE000F9B23046002212F04BF9E9E744F6FC5047
:10EAF000C1F20000007D41002846FEF781FABDE822
:10EB0000F081000044F6FC53C1F200031875C3E91C
:10EB1000031244F6C44040F6E951C1F20000C0F2CD
:10EB20000201C0F83411704744F61461C1F20001CB
:10EB300001EB400010F8010C70470000012A88BF6B
:10EB4000704780B544F61463C1F2000303EB400044
:10EB5000831E08461946FEF7D4F9BDE88040704789
:10EB600040B144F61462C1F2000202EB400000F82A
:10EB7000011C10E044F6146C6FF00100C1F2000CAF
:10EB80000CEB0003DA780230022A0A4608BF0122A1
:10EB90000428DA70F4D1704780B513F0DDFE006808
:10EBA00080BD000080B544F63830C1F2000044F664
:10EBB000C44C90F854E0C1F2000C0022634600BF40
:10EBC00001326FF01F0100BF58182C31382980F82E
:10EBD0002CE08284F8D1032A03F15803F0D141F2EA
:10EBE0009850C0F20300CCF8280180BD80B544F6EF
:10EBF000C441C1F2000141F2CC424FF6D57344F654
:10EC0000383C0020C0F20302C0F20103A1F12C0E37
:10EC1000C1F2000CC1E94800C1E94A230CEB001322
:10EC200001300022714600BF81F851200132CB63D0
:10EC300081F85000022A01F12C01F5D103280EF1D0
:10EC4000580EEBD141F28850C0F20300CCF83400EA
:10EC500080BD000010B5044603F0ECFC44F6C4404F
:10EC6000C1F20000D0F8201171B10A8AA24201D18C
:10EC7000002205E00A46096831B10B8AA342F9D1A6
:10EC800000F5907003F0A2FC012012F049FA03F0A5
:10EC9000EDFC10BD70B582B015460C46064603F07B
:10ECA000C9FC01A9304612F053FB28B10646808901
:10ECB000A04203D20D240CE00A240AE07068294621
:10ECC0002246FEF71EF9B07B000744BFB0680480FF
:10ECD000002403F0CBFC204602B070BDB0B5144652
:10ECE0000D4613F039FE45600473B0BD10B50C46F7
:10ECF00013F032FE046010BD44F62460C1F200003F
:10ED00000021C0E90C1144F6C44042F66911C1F279
:10ED10000000C0F20201C0F82C1140F6FC2042F2C3
:10ED20001D61C1F20000C0F20201416470470000A1
:10ED300000220146828006300A60704780B50622B4
:10ED4000FEF794F8B0FA80F0400980BD8A8882808E
:10ED5000096801607047000080B582B00021ADF8FD
:10ED60000410009169460622FEF780F8B0FA80F0A0
:10ED7000400902B080BD0000D1F800C04B68CA68ED
:10ED80008968C26081604360C0F800C070470000BD
:10ED90004A68096842600160704700000139013823
:10EDA000102200BF11F801CF10F8013F013A8CEAA0
:10EDB000030C130680F800C0F4D1704780B508F04A
:10EDC0007FFD80BD80B501F03FFC80BD80B5042093
:10EDD00003F046FB002808BF80BD014644F6A8604A
:10EDE000C1F20000007B05228A7003F065FB80BD44
:10EDF0002DE9F04107460E20984616460C4603F0D2
:10EE00002FFB002808BFBDE8F08105460020A87050
:10EE1000E81D41466C712F71AE71FFF797FF44F604
:10EE2000A860C1F20000007B294603F045FBBDE865
:10EE3000F081000070B514460D46064603F0FAFB5B
:10EE400044F6B071C6EBC600C1F2000101EB400010
:10EE5000C570047103F00AFC70BD000080B503F0BA
:10EE6000E9FB40F6443041F2D871C1F20000C0F233
:10EE70000301016014F03AFB44F6AC70C1F20000EB
:10EE800000210160002002F0F5FA03F0EFFB80BDE5
:10EE9000B0B50C46054603F0CDFB44F6B071C5EBAA
:10EEA000C500C1F2000101EB4000847003F0DEFBFD
:10EEB000B0BD000010B50446062003F0D1FA0028CA
:10EEC00008BF10BD01460420887044F6A860C1F256
:10EED0000000007B0C7103F0EFFA10BDB0B50C46DA
:10EEE000054603F0A7FB44F6B071C5EBC500C1F2BF
:10EEF000000101EB4000047203F0B8FBB0BD00005C
:10EF000010B5044603F096FB44F6A860C1F2000079
:10EF1000847303F0ABFB10BDB0B50C46054603F09F
:10EF200089FB44F66460C1F200002844C47703F012
:10EF30009DFBB0BD2DE9F041064603F108001C46DB
:10EF400090460F4603F08CFA002808BFBDE8F08118
:10EF5000054606990120A87005F1080022462E7189
:10EF60006F7185F80680EC71FDF7CBFF44F6A86061
:10EF7000C1F20000007B294603F09EFABDE8F08153
:10EF8000B0B50C46054603F055FB44F6B071C5EB31
:10EF9000C500C1F2000101EB4000447203F066FBC2
:10EFA000B0BD000070B514460D46064603F042FBA6
:10EFB00044F66460C1F2000000EB46000582C482A2
:10EFC00003F054FB70BD0000F0B581B01C4615463F
:10EFD0000E46074603F02EFB44F6B071C7EBC700A0
:10EFE000C1F2000101EB400046718571C47103F06C
:10EFF0003DFB01B0F0BD000070B506460C200D468B
:10F0000003F02EFA002808BF70BD04460620A07049
:10F01000601D29462671FFF799FE44F6A860C1F2EB
:10F020000000007B214603F047FA70BD2DE9F04156
:10F0300007461220984615460E4603F011FA00289E
:10F0400008BFBDE8F0810146022088700F717FB1D2
:10F05000002000BF325C0B185A7135F8102001EB0C
:10F060004004228118F80020013087429A73F1D1C0
:10F0700044F6A860C1F20000007B03F01DFABDE871
:10F08000F0810000B0B5044608200D4603F0E8F911
:10F09000002808BFB0BD0146032088700C713CB148
:10F0A000081D6A1E12F8013F013C00F8013FF9D12A
:10F0B00044F6A860C1F20000007B03F0FDF9B0BD8A
:10F0C000B0B50C46054603F0B5FA44F6B071C5EB91
:10F0D000C500C1F2000101EB4000447003F0C6FA24
:10F0E000B0BD000080B501F005FB80BDB0B586B0B5
:10F0F00094460A46DDE90A1E0C9C0125CDE9003143
:10F1000000216346CDF808E00495039414F088FDCF
:10F1100006B0B0BD10B5044603F08CFA44F6CC61DD
:10F1200004EB4400C1F2000101EB001030F8224C66
:10F1300003F09CFA204610BD70B504462420154605
:10F140000E4603F08DF9002808BF70BD0146192056
:10F15000887044F6A860C1F20000007B0E800D713B
:10F16000CD704C7103F0A8F970BD000044F6CC617D
:10F17000C1F200010C31032207E000BF013A13067F
:10F1800001F1300104BF002070478B7A002BF5D0CD
:10F190000B888342F2D108797047000044F6CC61B5
:10F1A00000EB4000C1F2000101EB001010F81A0C56
:10F1B0007047000080B503F03DFA40F6443041F658
:10F1C000380141F2E472C1F20000C0F20301C0F262
:10F1D0000302C0E9031241F6B401C0F203018163E6
:10F1E00044F6C06041F2F071C1F20000C0F20301C8
:10F1F000016044F6A07041F6A001C1F20000C0F227
:10F200000301016003F032FA80BD000044F6CC61D6
:10F2100000EB4000C1F2000101EB00102A387047FA
:10F2200044F6CC6100EB4000C1F2000101EB00109C
:10F2300010F81C0C7047000044F6CC6100EB400055
:10F24000C1F2000101EB00101638704780B503F0E1
:10F25000F1F944F6C06041F61001C1F20000C0F2BD
:10F260000301416044F6A07041F6A401C1F2000020
:10F27000C0F20301416003F0F9F980BD80B586B0AA
:10F280009C460023CDE90033029204930022002320
:10F29000CDF80CC014F0C4FC06B080BD44F6CC61BF
:10F2A00000EB4000C1F2000101EB00103038704764
:10F2B00044F6CC6100EB4000C1F2000101EB00100C
:10F2C00010F81D0C7047000044F6CC6100EB4000C4
:10F2D000C1F2000101EB001010387047B0B50C46C8
:10F2E000054603F0A7F944F6CC60C1F2000000EB3C
:10F2F0008500C0F8904003F0B9F9B0BD44F6CC6188
:10F3000000EB4000C1F2000101EB001010F8170CF7
:10F310007047000044F6CC6100EB4000C1F20001F0
:10F3200001EB001010F8190C7047000010B50446EE
:10F3300003F080F944F6A860C1F20000447303F0C2
:10F3400095F910BD80B50146012014F003FD80BD84
:10F3500070B516460C46054603F06CF92846FFF7D3
:10F360001DFF68B144F6CC6105EB4500C1F2000118
:10F3700001EB00103EB130F8221C214320F8221C82
:10F3800003F074F970BD30F8221CA14320F8221C50
:10F3900003F06CF970BD000080B50A4601460120FB
:10F3A00014F0F4FC80BD000080B503F043F944F68E
:10F3B000C06041F62801C1F20000C0F20301816083
:10F3C00044F6A07041F6AC01C1F20000C0F20301A6
:10F3D000816003F04BF980BD70B5064624200D46D0
:10F3E00003F03EF8002808BF70BD04463046FFF722
:10F3F00085FF7121002808BF7021A1702680286830
:10F400006968AA68606044F6A860A160E260C1F221
:10F410000000007B214603F04FF870BD80B504204A
:10F4200003F01EF8002808BF80BD014644F6A8601E
:10F43000C1F20000007B38228A7003F03DF880BDE5
:10F4400080B514F0CFFE80BD80B50A46014600208D
:10F4500014F0C8FE80BD000010B5044644F6A86054
:10F46000C1F200002146FFF771FC204601F068FE62
:10F4700010BD000080B501F0D1F880BD80B501F06D
:10F4800051F980BD80B501F0DBFB80BD80B503F094
:10F49000D1F840F6443041F2CC71C1F20000C0F224
:10F4A0000301016041F63011C0F20301816215F0E1
:10F4B00075F915F0F7FC44F6AC7040F6BD51C1F299
:10F4C0000000C0F201010160002001F0C7FF4FF40D
:10F4D00040500021012201F0A3FF03F0C7F880BDD6
:10F4E00080B503F0A7F844F6C06041F60801C1F208
:10F4F0000000C0F20301416044F6A07041F6A4018F
:10F50000C1F20000C0F20301416003F0AFF880BD1A
:10F510002DE9F0410C46054600264FF00108002079
:10F52000002708E0062E88BFBDE8F081F8B2032866
:10F5300006F101060CD208FA06F22A42F2D000EBDC
:10F54000400004EB8001D0B214F004FC0137E9E77D
:10F55000BDE8F0812DE9F04381B091460D460646A5
:10F5600000274FF001080020002400BF08FA07F32D
:10F57000334207D035F8101039F81020D8B214F003
:10F5800005FC0134062F04D8E0B2032807F1010777
:10F59000ECD301B0BDE8F08380B503F04BF844F63E
:10F5A000C06041F61801C1F20000C0F203018160A1
:10F5B00044F6A07041F6AC01C1F20000C0F20301B4
:10F5C000816003F053F880BD80B503F033F840F656
:10F5D000443041F66011C1F20000C0F203018160C5
:10F5E00015F084FF16F06CF903F040F880BD0000C0
:10F5F00010B5D1B192F800E04FF0000CBEF1000F51
:10F6000011D08BB273450ED9144614F8013F9446BD
:10F61000834208D06FEA0E0211440A0404EB0E0282
:10F62000E8D14FF0000C604610BD002010BD000076
:10F6300080B599B144F6A860C1F20000007C0028B2
:10F6400018BF80BD88787C2202EA500040F6443220
:10F65000C1F20002105882680846904780BD000041
:10F6600080B544F6A861C1F2000108730020C87596
:10F67000087444F61950C0F2020000F079FF80BD12
:10F6800044F6A861C1F20001C97D002908BF704796
:10F69000022804BF00207047032808BF01207047DC
:10F6A00080B50146032015F051FB80BD80B582B0C6
:10F6B000ADF8041044F6CC61C1F20001D1F89C1001
:10F6C0007622ADF806006846ADF80220884702B001
:10F6D00080BD000010B582B00C4614F0C1F938B1FD
:10F6E00073218DF802106946ADF8044014F0A4FCB3
:10F6F00002B010BDB0B584B005460846144614F0FB
:10F70000AFF940B172218DF8061001A902948DF86D
:10F710000C5014F091FC04B0B0BD000044F6A86198
:10F72000C1F20001C97D002908BF7047002804BF4D
:10F7300002207047012808BF0320704710B5044617
:10F74000062002F08DFE002808BF10BD01465020A3
:10F75000887044F6A860C1F20000007B0C7102F0D2
:10F76000ABFE10BDB0B50C46054602F063FF44F693
:10F77000DE7105EB4500C1F2000101EB40000471B0
:10F7800002F074FFB0BD00002DE9F041044602F123
:10F790000800984615460F4602F062FE002808BF92
:10F7A000BDE8F08106465120B070F01D41462A4662
:10F7B00034717771B571FDF7A4FB44F6A860C1F20E
:10F7C0000000007B314602F077FEBDE8F0810000CA
:10F7D00070B514460D46064602F02CFF44F6DE7165
:10F7E00006EB4600C1F2000101EB400221F8105087
:10F7F000548002F03BFF70BD10B50446062002F0B5
:10F800002FFE002808BF10BD01465220887044F624
:10F81000A860C1F20000007B0C7102F04DFE10BD2B
:10F8200010B50446062002F01BFE002808BF10BDDC
:10F8300001465320887044F6A860C1F20000007BA6
:10F840000C7102F039FE10BD80B502F0F3FE40F6F7
:10F85000443041F63C11C1F20000C0F203014162A4
:10F860004FF410600021012201F0DAFD02F0FEFEEB
:10F8700080BD00002DE9F04381B004462C2098465D
:10F8800016460F4602F0ECFDF0B10546DDE90890A2
:10F890003121A9702880681D39462C71FFF756FA6E
:10F8A00005F10B003146FFF767FA05F11B004146F1
:10F8B000FFF762FA44F6A860C1F20000007B294617
:10F8C00085F82B9002F0F8FD01B0BDE8F083000050
:10F8D00080B52C2002F0C4FD002808BF80BD014681
:10F8E0003320887044F6A860C1F20000007B02F06B
:10F8F000E3FD80BD80B502F09DFE40F6443041F648
:10F900005411C1F20000C0F20301816141F64811B7
:10F91000C0F20301C16302F0A9FE80BDF0B581B061
:10F9200007460C2016460D4602F09AFD80B10446AB
:10F930003220A070601D294626802771FFF706FA45
:10F9400044F6A860C1F20000007B214602F0B4FD3D
:10F9500001B0F0BD10B504462C2002F081FD002856
:10F9600008BF10BD0146342088700020088044F68E
:10F97000A860C1F20000007B0C7102F09DFD10BD7B
:10F9800080B501F0F1FB80BD10B5044602F052FED7
:10F99000204614F07DF8044602F068FE002C08BFF3
:10F9A00010BDA08901F0D0F810BD000010B59AB0CC
:10F9B00040F64431C1F20001096A41F6CC0244F636
:10F9C000A864C0F20302C1F200049142A0600AD010
:10F9D00000F0F2FD442806D80020C0F27710A1689C
:10F9E000019001A888471AB010BD0000B0B50546C7
:10F9F00006200C4602F034FD002808BFB0BD0146C9
:10FA00002320887044F6A860C1F20000007B0D80BE
:10FA10000C7102F051FDB0BDB0B5054610200C468A
:10FA200002F01EFD002808BFB0BD014622208870EC
:10FA30000D8020686268A368486044F6A8608A6008
:10FA4000CB60C1F20000007B02F036FDB0BD0000CB
:10FA500080B501F00BF980BD80B502F0EBFD40F6FA
:10FA6000443041F66C11C1F20000C0F20301816024
:10FA700015F03CFD02F0FAFD80BD000080B515F0E8
:10FA80005DFD80BD10B5044602F0D4FD44F6A860CB
:10FA9000C1F20000C47302F0E9FD10BD2DE9F0438E
:10FAA00081B091460D46064600274FF00108002020
:10FAB000002400BF08FA07F3334207D035F81010CE
:10FAC00039F81020D8B215F05FFD0134062F04D8A4
:10FAD000E0B2032807F10107ECD301B0BDE8F083E1
:10FAE0002DE9F04381B00746102098461646894616
:10FAF000102402F0B5FC30B3DDE908EC0146847057
:10FB00000771431D00200024002200BF27FA00F5E2
:10FB1000ED0702D0355D01321D55D4B2022C03D859
:10FB2000072800F10100F1D344F6A860C1F20000FB
:10FB3000007B81F80890A1F80AE0A1F80CC081F8D8
:10FB40000E8002F0B9FC01B0BDE8F08380B504205E
:10FB500002F086FC002808BF80BD014644F6A8607C
:10FB6000C1F20000007B11228A7002F0A5FC80BD6A
:10FB7000F0B581B00746162015460C4602F070FC21
:10FB800068B106460420B0703780347525B1301D49
:10FB900029462246FDF7B5F9304602F0D9F801B002
:10FBA000F0BD0000F0B58BB0044610200D4602F009
:10FBB0005DFB45F2380744F6A866C1F20007C1F2C2
:10FBC0000006386018B32146FFF7D6F8412002F04E
:10FBD0004DFBC8B129462022044602F08BF9294684
:10FBE000202202F087F9002101703868337B40251C
:10FBF000009121464122019501F084FE08B10BB02D
:10FC0000F0BD204602F062FB386802F05FFB02ACF8
:10FC100020462421FDF716FA40F23370B168ADF8A2
:10FC20000A00204688470BB0F0BD0000B0B505467D
:10FC300004200C4602F014FC002808BFB0BD0321CC
:10FC400081700580C47002F083F8B0BD70B50546C0
:10FC500016200E4602F004FC002808BF70BD0446C2
:10FC6000058016B11620A07004E0284621460C221B
:10FC700002F0A0F9204602F06BF870BDF0B581B03B
:10FC80000746202016460C4602F0EAFB88B10546DE
:10FC90002820A870281D31461A222F80FDF731F93F
:10FCA00044F6A860C1F20000007B2946AC7702F060
:10FCB00003FC01B0F0BD0000C0684DF6836100BADE
:10FCC000C4F21B31A0FB0112910C43F609525143BF
:10FCD000A0EB81107047000049F27460C1F200008F
:10FCE0007047000045F23000C1F2000040687047E4
:10FCF00045F23000C1F200000068704740F6443021
:10FD000041F67811C1F20000C0F20301416145F2F1
:10FD1000300041F2BA51C1F20000C0F20301C0E963
:10FD200000117047B0B5044606200D4602F098FB5E
:10FD3000002808BFB0BD172105710480817002F052
:10FD400007F8B0BD40F6443041F68411C1F200001E
:10FD5000C0F20301016270472DE9F041044616200C
:10FD6000984616460F4602F07BFB002808BFBDE808
:10FD7000F08105462920A8702C802F756E751FB163
:10FD8000281D4146FEF7F8FF44F6A860C1F20000C6
:10FD9000007B294602F090FBBDE8F081F0B581B010
:10FDA000074608201C4615460E4602F059FB68B16E
:10FDB00006990122827004F0070201F00701078012
:10FDC000067145718271C17101F0C2FF01B0F0BDD1
:10FDD000F0B581B0074608201C4615460E4602F0D5
:10FDE0003FFB68B106990222827004F0070201F01D
:10FDF00007010780067145718271C17101F0A8FF8A
:10FE000001B0F0BD80B5014649F27460C1F2000056
:10FE10006022FDF776F880BD10B5044602F00AFCBA
:10FE200045F23000C1F20000446002F01FFC10BD3A
:10FE300010B5044602F0FEFB45F23000C1F20000AE
:10FE4000046002F013FC10BD80B502F0F5F880BD2F
:10FE5000B0B5054606200C4602F002FB002808BF9C
:10FE6000B0BD052181700580047101F071FFB0BD46
:10FE700080B500F0D1FF80BDF0B581B01C461546BD
:10FE80000E46074602F0D6FB384613F001FE074641
:10FE900002F0ECFB4FB1DDF818C0B88931462A46B4
:10FEA0002346CDF800C001F019F901B0F0BD000003
:10FEB00010B5044680782C2801D02A2808D144F6B1
:10FEC000CC60C1F20000D0F8901009B120468847FC
:10FED00044F6A860C1F2000081682046884710BD42
:10FEE000B0B514460D4613F0D3FD002808BFB0BDD1
:10FEF00000218289817441F2BA510576C0F2030172
:10FF000010460022234601F085F9B0BD2DE9F047E7
:10FF1000984616468946044602F08CFB2046314638
:10FF200015F05CFC054620B92046314615F01AFC58
:10FF3000054602F09BFB4DB3122002F091FAF0B19E
:10FF40000746A87ADDF820A038805820B870B81D80
:10FF500031463C7187F80590FEF7F8FE44F6A8603C
:10FF6000C1F200000021007B39743946A7F80C80EB
:10FF7000A7F80EA002F0A0FAA87ABDE8F08702F078
:10FF800059FB284615F040FC02F070FB0020BDE84C
:10FF9000F087000010B50446042002F061FA002842
:10FFA00008BF10BD0146048044F6A860C1F20000FD
:10FFB000007B59228A7002F07FFA10BDB0B5054669
:10FFC00006200C4602F04CFA002808BFB0BD0146DE
:10FFD0002520887044F6A860C1F20000007B0D80E7
:10FFE0008C8002F069FAB0BD80B540F23112C8F2DF
:10FFF000010201461DF0FEFD80BD000080B540F20B
:020000040001F9
:100000003812C8F201021DF0F5FD80BD80B540F246
:100010003312C8F201021DF0EDFD80BD80B540F243
:100020003212C8F201021DF0E5FD80BD80B519F065
:10003000BBFE1DF01DFD80BD49F2E842C1F2000289
:10004000C2E904017047000070B582B039B1887808
:1000500001283DD1084616F097F802B070BDC007E0
:1000600036D049F2E844C1F200040DF10701204600
:1000700002F006FA60B306460DF1070509E000BF7D
:10008000304602F013FA2046294602F0F9F90646F6
:10009000F0B19DF8070002280CD0042812D1304698
:1000A00017F096FA94F821000028E9D0304616F0AF
:1000B00087FAE5E7304616F069F80028E3D02169B1
:1000C00004E000BFA1690029DAD030468847DAE7AA
:1000D00002B070BD80B549F22850C1F20000002185
:1000E000C0E91C116FF01B014FF6FF7243181C3161
:1000F00038299A85FAD14FF0FF31C0E91511C16551
:100100001B21A0F87C1040F20511A0F880100021FE
:10011000C0F8A01016F09AF980BD0000B0B50C46EA
:10012000054640F20640032115F0D8FF002808BF1D
:10013000B0BD290AC5700171447115F0FFFFB0BD53
:1001400080B549F2A41048F63C01C1F20000C1F2AA
:1001500000014FF482724FF402630FF0BDF980BDCD
:1001600070B5887803280CD002280DD101F0A4F8CE
:1001700045F27020C1F2000042F2107102F0BEFAA6
:1001800070BD1DF0BDFE70BD49F2C01648F2B075DD
:10019000C1F20006C1F2000531682A6844F65C64C9
:1001A0009142C1F200040DD940F69830C1F200002E
:1001B0000068891A104489B2FEF700FE0020306002
:1001C000286020704CF20C30C5F200000088000658
:1001D00000D470BD207840B145F26C20C1F200001F
:1001E0000078012102F00AFA70BD0120207040F66B
:1001F000E050C1F20000006849F25C0146F225724D
:10020000C1F20001C0F2020200230DF0B3F945F281
:100210007025C1F200050446284602F07DFA284602
:1002200042F2107102F06AFA3068B0F5807F05D9A9
:100230000220C0F6001015F033FC70BD002C08BF82
:1002400070BD204615F02CFC00F066F9002000F08F
:1002500067F8FFF775FFFFF7E1F870BD45F26C2115
:10026000C1F20001087045F27021C1F200010222C2
:1002700008738A7148F25861C1F2000108730320C3
:1002800088717047B0B582B040F6E055C1F2000504
:10029000286801210DF054F92968044608462146D2
:1002A0000DF0A8F8286821460DF0D8F820061AD4D9
:1002B000E00516D549F2A410C1F20000816881B1B1
:1002C00041684069421846F27971286852F8043B47
:1002D000C0F2020100250091002101950DF082F984
:1002E00078B102B0B0BD286800210DF0DBFE45F208
:1002F0006C20C1F200000078012102F07FF902B009
:10030000B0BD45F27024C1F20004204602F004FAA8
:10031000204642F2107102F0F1F902B0B0BD0000C7
:100320002DE9F04F89B0824649F2C010C1F20000B9
:100330000022026048F2B07040F6E0594EF6805557
:10034000C1F2000000214FF00108C1F20009C0F223
:1003500002050DF1080B0191026004E0032000BFCB
:10036000002840F09980B8F1000F00F0978000203D
:1003700049460DF00BF8002840F08980D9F80000BC
:1003800000210DF0D7FC002840F0818095E84F0057
:100390000DF1080CD5E905478CE84F00D9F80000AD
:1003A0005946079408970CF075FE28B115F078FBB4
:1003B00001200028D4D102E000200028D0D1BAF1D9
:1003C000000F03D04FF47A700FF020FBD9F8000033
:1003D0000CF074FD80460028C0D00B20C0F6000051
:1003E00080450AD1D9F8000001210DF0A3FC80B1AD
:1003F00015F056FB0120B8B90DE0D9F80000012135
:100400000DF098FCA8B115F04BFB01200028A7D1F6
:1004100013E0002040B9D9F800000CF055FFC0B13E
:1004200015F03EFB0120B8B140F20B08C0F6000801
:1004300096E7002000287FF493AFD9F800000CF075
:1004400043FFA0B115F02CFB012000287FF488AFFA
:1004500011E000200028E7D10198092800F10104EB
:100460000ED84FF47A700FF0D1FA002009E0002086
:1004700000287FF475AF404615F012FB01206FE7AE
:10048000012040F20B08C0F60008019468E715F05F
:1004900007FB09B0BDE8F08F032839D1D9F8000077
:1004A00008210DF09BFDD9F8000040F281310CF0DD
:1004B000A1FFD9F8000040F281310CF0AFFF0C2011
:1004C000C4F202000068C0B221280BD3D9F80000A2
:1004D0004FF4C0310CF08EFFD9F800004FF4C0315A
:1004E0000CF09CFF0BF05AFF49F2A41048F63C01B7
:1004F000C1F20000C1F200014FF482724FF40263B6
:100500000EF0EAFF49F2BC10C1F2000000210160C8
:1005100009B0BDE8F08F000010B545F27020C1F2BF
:10052000000002F0F9F80BF02DFF40F6E054C1F2A4
:100530000004206801210DF0FDFB50B941F20800D4
:10054000C4F2020001888904FCD420680CF0BCFECF
:1005500010B115F0A5FA10BD49F2C010C1F20000AB
:100560000021016048F2B070C1F20000016010BDCE
:1005700049F2E841C1F200018860704749F2285011
:10058000C1F200006830704749F22850C1F2000003
:10059000B0F87E007047000049F22850C1F2000018
:1005A000D0E922017047000049F22850C1F2000052
:1005B000B0F892007047000049F22850C1F20000E4
:1005C000B0F87C007047000049F22850C1F20000EA
:1005D00090F894007047000049F22850C1F20000E2
:1005E00090F895007047000049F22850C1F20000D1
:1005F00090F884007047000080B5FFF725FD80BDAE
:1006000080B549F2E841C1F2000181F820000020E4
:10061000C1E90000FFF75EFD80BD000070B50C462B
:10062000054642F21100072115F058FD002808BFC9
:1006300070BD064604302146F570FEF787FB304654
:1006400015F07CFD70BD0000F0B581B00D46074689
:1006500042F247000821144615F040FD48B1064615
:1006600004302946F770FEF771FB3046B47215F07E
:1006700065FD01B0F0BD00002DE9F0418846074658
:1006800042F2270027211C46164615F027FD0028B8
:1006900008BFBDE8F081054604304146EF70FEF723
:1006A00055FB30687168F268B368C5F81620C5F864
:1006B0001230C5F80E10C5F80A0020686168A268FB
:1006C000E368C5F81A002846C5F81E10C5F82220B0
:1006D000C5F8263015F032FDBDE8F08180B542F254
:1006E0003D00002115F0FAFC002818BF15F026FD8A
:1006F00080BD000080B542F24900002115F0EEFCFB
:10070000002818BF15F01AFD80BD000080B542F228
:100710002900002115F0E2FC002818BF15F00EFD9D
:1007200080BD000080B542F21000002115F0D6FC1B
:10073000002818BF15F002FD80BD0000B0B50C46C2
:10074000054642F213000E2115F0C8FC002808BF30
:10075000B0BDA0F803502178417161788171A17812
:10076000C171E17801722179417261798172A17957
:10077000C172E1790173217A4173617A8173A17A3F
:10078000C173E17A017415F0D9FCB0BD80B542F2B5
:100790000E00002115F0A2FC002818BF15F0CEFCB9
:1007A00080BD00002DE9F0470F46054642F20D00DE
:1007B00019219846914615F091FC002808BFBDE824
:1007C000F0870446C570280ADDE9081A2071380A46
:1007D0000A9EA07104F10900677184F8079084F8FB
:1007E0000880FEF7B3FA84F80FA030782074707890
:1007F0006074B078A074F078E07430792075707906
:100800006075B079A075F079E075307A2076707AED
:100810006076B07AA076F07AE076204615F08EFC0D
:10082000BDE8F087B0B50C46054642F2170020211E
:1008300015F054FC002808BFB0BD29686A68EB6851
:10084000AD68C0F80F30C0F80B50C0F80720C0F8F2
:10085000031021686268A368E568C0F81310C0F847
:100860001720C0F81B30C0F81F5015F067FCB0BD52
:100870002DE9F0470746007A1446884600260021F5
:1008800020FA01F2D20718BF0136062904D8F2B2C5
:10089000042A01F10101F3D35FFA86F94FEA091046
:1008A00000F10A0142F2430015F018FC002808BFCD
:1008B000BDE8F087824638788AF8030078788AF8AD
:1008C0000400B8788AF8050079680AF10600FEF796
:1008D0003DFA387A31068AF80C0034D04FEA4901E3
:1008E00051FA86F1AAF103004FEA810CA21DA8F18A
:1008F000020300279E78E51900F8106FDE78467035
:1009000013F8046F86705E78C670E65D06716E78C7
:100910004671AE788671EE78C671D61916F8021C4B
:10092000017216F8011C4172D15D0C378172717829
:10093000BC45C172297A0173697A4173A97A8173BE
:10094000E97AC173D6D1504615F0F8FBBDE8F087BF
:10095000F0B581B00E46074642F2420006211C4621
:10096000154615F0BBFB48B1290A8171210AC770F1
:1009700006714571C471017215F0E0FB01B0F0BD64
:1009800070B50C46064642F22600402115F0A6FB43
:10099000002808BF70BD0546033031462022FCF711
:1009A000B0FA05F1230021462022FCF7AAFA2846D6
:1009B00015F0C4FB70BD000010B5044642F21B00E8
:1009C000022115F08BFB002808BF10BDA0F80340E2
:1009D00015F0B4FB10BD0000B0B50C46054642F260
:1009E0001A00122115F07AFB002808BFB0BDA0F84C
:1009F000035021686268A368E568C0F80510C0F874
:100A00000920C0F80D30C0F8115015F097FBB0BDAB
:100A100080B542F24500002115F060FB002818BFA8
:100A200015F08CFB80BD00002DE9F04F81B00F4622
:100A3000054642F244000E219846164615F04EFB3C
:100A4000D0B10446DDF83090DDE90ABAC57007710F
:100A5000063041466671FEF779F94FEA1B20607354
:100A60004FEA1A20E073204684F80CB084F80EA0F8
:100A700084F8109015F062FB01B0BDE8F08F000023
:100A800010B5044642F24600022115F027FB00286B
:100A900008BF10BDA0F8034015F050FB10BD0000CA
:100AA00080B542F21800002115F018FB002818BF8D
:100AB00015F044FB80BD000080B542F20200002129
:100AC00015F00CFB002818BF15F038FB80BD0000A6
:100AD00080B542F20300002115F000FB002818BF8A
:100AE00015F02CFB80BD000080B542F23A000021D9
:100AF00015F0F4FA002818BF15F020FB80BD0000A7
:100B000080B542F22F00002115F0E8FA002818BF46
:100B100015F014FB80BD000080B542F23B000021BF
:100B200015F0DCFA002818BF15F008FB80BD0000A6
:100B300080B542F24A00002115F0D0FA002818BF13
:100B400015F0FCFA80BD000010B5044642F23000FA
:100B5000022115F0C3FA002808BF10BDA0F8034019
:100B600015F0ECFA10BD000080B542F22A00002119
:100B700015F0B4FA002818BF15F0E0FA80BD0000A7
:100B800080B542F21C00002115F0A8FA002818BF19
:100B900015F0D4FA80BD000080B542F20F000021AC
:100BA00015F09CFA002818BF15F0C8FA80BD0000A7
:100BB000B0B50C46054642F22100032115F08EFA2D
:100BC000002808BFB0BD290AC5700171447115F035
:100BD000B5FAB0BDF0B581B00E46074642F220002E
:100BE0000E211C46154615F079FAC8B1C7703F0AA8
:100BF0000899DDE906320771370A87712F0A0772F3
:100C0000270AC3721B0A4273120AC173090A46718A
:100C1000C5714472877203738273017415F08EFA82
:100C200001B0F0BD10B5044642F23C00012115F0C0
:100C300055FA002808BF10BDC47015F07FFA10BD2A
:100C400070B50C46054642F21200072115F046FA2F
:100C5000002808BF70BD064604302146F570FEF737
:100C600075F8304615F06AFA70BD0000F0B581B035
:100C70000D46074642F248000821144615F02EFAA8
:100C800048B1064604302946F770FEF75FF8304653
:100C9000B47215F053FA01B0F0BD000070B50C4607
:100CA000054642F22800072115F018FA002808BF6F
:100CB00070BD064604302146F570FEF747F8304611
:100CC00015F03CFA70BD000010B5044642F26D000C
:100CD000022115F003FA002808BF10BDA0F8034058
:100CE00015F02CFA10BD000010B5044642F22D009C
:100CF000012115F0F3F9002808BF10BDC47015F0EC
:100D00001DFA10BDF0B581B00E46044642F208004F
:100D1000202115F0E3F978B1071D0546C470384667
:100D200031462246FCF7EDF83819C4F11F01FCF7F3
:100D300067F9284615F002FA01B0F0BD10B5044677
:100D400042F20A00012115F0C9F9002808BF10BDC0
:100D5000C47015F0F3F910BD2DE9F0470F460546B4
:100D600042F206000F219846164615F0B7F9002802
:100D700008BFBDE8F0870446DDE90821C570280AF0
:100D8000DDE90AA92071380AA07104F10A0067712F
:100D9000E67184F80880627221B1FDF7D7FF04F193
:100DA000100001E0FDF7C4FF80F800A080F801907A
:100DB000204615F0C3F9BDE8F087000070B50C4679
:100DC000054642F23500072115F088F9002808BFD2
:100DD00070BD064604302146F570FDF7B7FF30467A
:100DE00015F0ACF970BD000070B50D46064642F234
:100DF00022000621144615F071F9002808BF70BDC5
:100E0000310A0171290A8171210AC6704571C471C4
:100E1000017215F093F970BD70B50D46064642F2A9
:100E200031000321144615F059F9002808BF70BDA0
:100E3000C6700571447115F081F970BD10B5044696
:100E400042F20100082115F049F9002808BF10BD41
:100E500061682268C0F80710C0F8032015F06EF929
:100E600010BD00002DE9F0411C460E460746FB2B45
:100E700003F1040142F23700904628BF6FF00404EA
:100E8000FF2928BFFF2115F029F9002808BFBDE878
:100E9000F08106990546E2B2C770067180F80580B8
:100EA0000730AC71FCF72DF8284615F047F9BDE87E
:100EB000F081000070B5064688000C46811C42F2A5
:100EC0003900154615F00AF9002808BF70BDC67034
:100ED00004716CB1A91F421C11F8063F013C02F8D5
:100EE000043F8B785370CB7893700B79D370F3D128
:100EF00015F024F970BD000070B50C46064642F2AC
:100F00003600192115F0EAF8002808BF70BDC67038
:100F1000054620782871607868716068A8716068FB
:100F2000000AE871E0882872A0686872A068000A68
:100F3000A8726089E872207B2873607B6873A07B4D
:100F4000A873216905F10F00FDF700FF207D68758A
:100F5000607DA875A07DE875E07D2876207E6876A6
:100F6000607EA876A07EE876284615F0E7F870BD8A
:100F70002DE9F04381B0984615468946074600267C
:100F8000002000BF25FA00F1C90718BF0136062866
:100F900004D8F1B2042900F10100F3D3F4B2A000A7
:100FA00050FA86F0C11C42F2410015F097F8C8B122
:100FB0003106C77080F80490457111D0A8F1060180
:100FC000421C00BF8B7A013C02F8053F11F8063F36
:100FD00053704B7893708B78D370CB781371F1D1B9
:100FE00015F0ACF801B0BDE8F08300002DE9F04148
:100FF0001C460E460746FB2B03F1040142F2380063
:10100000904628BF6FF00404FF2928BFFF2115F088
:1010100065F8002808BFBDE8F08106990546E2B2F0
:10102000C770067180F805800730AC71FBF769FF67
:10103000284615F083F8BDE8F08100002DE9F04165
:1010400015460E460746FC2A02F1030142F23F0014
:10105000984628BF6FF00305FF2928BFFF2115F030
:101060003DF8002808BFBDE8F0810446EAB2C77029
:101070000671063041466571FBF743FF204615F0C7
:101080005DF8BDE8F0810000B0B50C4605464FF4B0
:101090000150022115F022F8002808BFB0BDC5702C
:1010A000047115F04BF8B0BDF0B581B00E4607469F
:1010B00042F23E0007211C46154615F00FF858B1C4
:1010C000310A4171290AC171210AC77006718571FF
:1010D0000472417215F032F801B0F0BDF0B581B084
:1010E0000E46074642F2320007211C46154614F010
:1010F000F5FF58B106993A0A0172090AC7700271E0
:1011000046718571C471417215F018F801B0F0BDD7
:10111000F0B581B00D46074642F24E000821144654
:1011200014F0DCFF48B1064604302946F770FDF79D
:101130000DFE3046B47215F001F801B0F0BD0000AC
:10114000B0B5044642F20500062114F0C7FF00289E
:1011500008BFB0BD054603302146FDF7F7FD284620
:1011600014F0ECFFB0BD000010B5044642F22E00B2
:10117000022114F0B3FF002808BF10BDA0F80340FF
:1011800014F0DCFF10BD0000B0B50C46054642F27D
:101190000C00022114F0A2FF002808BFB0BDC570EA
:1011A000047114F0CBFFB0BDF0B581B00E46074618
:1011B00042F20B0007211C46154614F08FFF58B170
:1011C0000699320A42712A0AC77006718571C27186
:1011D0000472417214F0B2FF01B0F0BDF0B581B0FD
:1011E0000E46044642F20900202114F077FF78B140
:1011F000071D0546C470384631462246FBF781FE7E
:101200003819C4F11F01FBF7FBFE284614F096FFC6
:1012100001B0F0BDF0B581B00E46074642F21900AC
:101220001C211C46154614F059FFC0B1A0F80370EC
:1012300071683268C0F80910290AC0F805204573A2
:10124000817321686268A368E768C0F80F10C0F86E
:101250001320C0F81730C0F81B7014F06FFF01B0F6
:10126000F0BD0000B0B50C46054642F22400042152
:1012700014F034FF002808BFB0BD290A0171210A0B
:10128000C5704471817114F059FFB0BD49F2285006
:10129000C1F2000090F89100002818BF01207047AB
:1012A00080B541F20900002114F018FF002818BF92
:1012B00014F044FF80BD000080B541F20100002120
:1012C00014F00CFF002818BF14F038FF80BD000098
:1012D00010B5044641F20540022114F0FFFE00283B
:1012E00008BF10BDA0F8034014F028FF10BD000097
:1012F00080B549F20C50C1F200000121817640F620
:101300000340002114F0EAFE002818BF14F016FF75
:1013100080BD000080B549F2E840C1F20000012123
:1013200080F8211015F050F980BD000049F2E84125
:10133000C1F20001C86070472DE9F04381B0B0F8F8
:10134000008006464488404615F004F898B149F2FA
:101350002859C1F2000909F170070546384601F025
:10136000E7F860B199F8820048B1A1B22846324648
:1013700015F074F908E0304601F098F817E03846A7
:101380000021324601F088F84FF0FF3010FA84F463
:10139000FFF7FAF894FBF0F0297E0844013099F841
:1013A0008010C2B28A42287601D3E87D10B101B024
:1013B000BDE8F08349F2E841C1F2000101204A6929
:1013C000E87540460121904701B0BDE8F083000078
:1013D00010B5044640F60140082114F07FFE0028B5
:1013E00008BF10BD61682268C0F80710C0F803206C
:1013F00014F0A4FE10BD000010B5044640F6634092
:10140000082114F06BFE002808BF10BD6168226837
:10141000C0F80710C0F8032014F090FE10BD0000C3
:1014200040F6B03CC1F2000C32B1DCE900321143AD
:101430001843CCE900017047DCE9002323EA0101ED
:1014400022EA0000CCE900017047000049F228516F
:10145000C1F20001A1F87C007047000049F2285059
:1014600046F2DD31C1F20000C0F20201C0F8A01066
:101470007047000049F22850C1F200000021C0F876
:10148000A0107047B0B50C46054640F67C400421DC
:1014900014F024FE002808BFB0BD290A0171210AFA
:1014A000C5704471817114F049FEB0BDEFF3108036
:1014B00000281CBF01207047EFF31180002818BFDF
:1014C00001207047EFF3108000281CBF01207047F7
:1014D000EFF31180002818BF01207047EFF3108050
:1014E00000281CBF01207047EFF31180002818BFAF
:1014F00001207047EFF3108000281CBF01207047C7
:10150000EFF31180002818BF01207047EFF305802A
:10151000002818BF01207047EFF30580002818BF8E
:1015200001207047EFF30580002818BF01207047A5
:10153000EFF30580002818BF01207047EFF31480F7
:10154000012121EA0000704780B51970090A59701D
:10155000111D9970090A9871000AD970110AD87181
:1015600018461A715971FFF7E7FE80BD2DE9F04169
:101570000D460446FDF7FAFD002840D049F22866E2
:101580000138C1F2000637184FF0120830461E210C
:1015900087F8118001F0B8F81420B48016F09AFF93
:1015A000002808BFBDE8F081034680F8088049F2B2
:1015B0000060C1F2000090F82410597290F82410D5
:1015C00039750131CAB28A4218BF012280F824203D
:1015D0000820588128782146187368780C2258739F
:1015E000A8789873E878D87328791874687958744B
:1015F000A8799874E879D8740520FFF7A5FFBDE8AD
:10160000F081000070B506460E2015460C4616F017
:1016100061FF002808BF70BD034613201872022026
:101620005881280A58730520214606225E721D73D0
:10163000FFF78AFF70BD000080B549F2006048F2F4
:101640007131C1F20000C0F2020148F2E14248F2F9
:101650006D33C0E9001148F27531C0F20202C0F2E8
:101660000203C0F20201C0E90223C0E904330162AF
:10167000012180F8241048F2793048F20541C0F287
:101680000200C0F20201FEF7D7FC80BD49F2006003
:1016900048F24141C1F20000C0F20201816170478D
:1016A00049F2006CC1F2000C10230428604608BF08
:1016B0000C2318BF043001604CF803207047000071
:1016C00080B531B18878012818BF80BD084616F072
:1016D00041FF80BD49F22861C1F2000101228A71F7
:1016E000087308747047000049F2006048F26151C5
:1016F000C1F20000C0F20201C16149F22860C1F2EA
:101700000000002181828175704700000844704705
:101710007047000010B5044628300EF0A1FB58B108
:10172000E46A4CB1A01C0EF0F9FB18B1A468002CBF
:10173000F8D10024204610BD0024204610BD000032
:1017400010B584465CF8303F5BB191F803E0DA787D
:1017500072450BD21A465B686BB1DC787445F9D3DD
:1017600005E00022C1E90122C1620DE00022C1E9C9
:101770000132083303E0C1E9013200F12C031960A2
:10178000002A18BF02F1040C2830CCF800100EF02B
:101790009FFB10BDD1E9012C02F10803002A08BF0C
:1017A00000F12C03C3F800C0D1E90112131D002A77
:1017B00008BF00F130031960704700004EF21000BE
:1017C000CEF200000068704740F6E450C1F200001D
:1017D0000178012908D1002101704EF60450CEF2A3
:1017E00000004FF0806101604EF21000CEF2000068
:1017F000016841F001010160704700004FF0FF30C7
:101800007047000058B140F21011C1F200010968A0
:10181000B1FBF0F0411E0020B0EB116F02D04FF091
:10182000FF3070474EF62352CEF20002FF231370B2
:101830004EF21002CEF2000206231360516040F611
:10184000E451C1F20001906008707047B0B54EF6E7
:101850002254CEF20004FF202070207880F0FF0098
:10186000B0FA80F0C0F120050AF0B0FDA84228BF10
:10187000451CFE20A84004F8030CB0BD2DE9F04340
:1018800081B0054638201C461746884600F0E8FD22
:10189000E0B1DDF82090064614F058F9F070002011
:1018A00086F8340049F6D070C1F200002030394685
:1018B0003246348086F8029000F0EEFD284641461C
:1018C000FEF7B0FFF07801B0BDE8F083FF2001B073
:1018D000BDE8F083B0B505461030053114466860A8
:1018E000FDF74AFA2046294600F0E6FDB0BD0000AB
:1018F00049F6D07041F6D501C1F20000C0F20101F5
:10190000C16370472DE9F041804664201D461746AB
:101910000C4600F0A5FD064600284FF0000008BF69
:10192000BDE8F081334643F8384F49F6D074C1F230
:10193000000494F8381033630123DDE9062C86F89F
:1019400034304B1C84F83830F170A6F85C0086F80F
:10195000610006F13C004146328086F802C0A6F8DC
:101960005E7086F86050FDF707FA304618F0FCFD0F
:101970000120BDE8F0810000B0B5056BA5B10446BB
:1019800010300531FDF7F8F995F82900022808D044
:1019900001280AD0002818BFB0BD204618F0F6FD77
:1019A000B0BD204618F0D2FDB0BD204618F02CFE88
:1019B000B0BD000049F6D07041F67911C1F20000C7
:1019C000C0F2010101647047F0B591B004469C205B
:1019D0001E4617460D4600F043FD08B30246078039
:1019E0008670022082F8340049F6D070C1F20000FF
:1019F0003030294600F050FD09AD2846214620220E
:101A000000F01EFC04F1200101AC2046202200F071
:101A100017FC28462146FEF7B3FF012011B0F0BDA8
:101A2000002011B0F0BD000070B50E468978154653
:101A3000262904460CD0252918BF70BD201D711D14
:101A4000202200F0FDFB04F1240006F1250101E055
:101A5000201D711D202200F0F3FB30792146E0703B
:101A6000284600F029FD70BD49F6D07041F62921C5
:101A7000C1F20000C0F201014164704780B549F62F
:101A8000D070C1F20000002180F83810C0E90811C0
:101A9000C0E90A11C0E90C114AF27D60C0F20200EF
:101AA000FFF744FC80BD00002DE9F04188B00DF146
:101AB000100815460E460146404610221C4600F00E
:101AC000BFFB6F4638463146102200F0B9FB49F69D
